{
  "contractName": "Emitter",
  "abi": [
    {
      "anonymous": false,
      "inputs": [
        {
          "indexed": false,
          "internalType": "address",
          "name": "from",
          "type": "address"
        },
        {
          "indexed": false,
          "internalType": "uint256",
          "name": "credit_amount",
          "type": "uint256"
        },
        {
          "indexed": false,
          "internalType": "uint256",
          "name": "timestamp",
          "type": "uint256"
        },
        {
          "indexed": false,
          "internalType": "string",
          "name": "status",
          "type": "string"
        },
        {
          "indexed": false,
          "internalType": "uint256",
          "name": "end_date",
          "type": "uint256"
        }
      ],
      "name": "purchaseCredits",
      "type": "event"
    },
    {
      "inputs": [
        {
          "internalType": "uint256",
          "name": "credit_amount",
          "type": "uint256"
        },
        {
          "internalType": "string",
          "name": "status",
          "type": "string"
        },
        {
          "internalType": "uint256",
          "name": "end_date",
          "type": "uint256"
        }
      ],
      "name": "addToBlockChain",
      "outputs": [],
      "stateMutability": "nonpayable",
      "type": "function"
    },
    {
      "inputs": [],
      "name": "getTransactionCount",
      "outputs": [
        {
          "internalType": "uint256",
          "name": "",
          "type": "uint256"
        }
      ],
      "stateMutability": "view",
      "type": "function",
      "constant": true
    }
  ],
  "bytecode": "0x608060405234801561001057600080fd5b506103d7806100206000396000f3fe608060405234801561001057600080fd5b50600436106100365760003560e01c80632e7700f01461003b578063de7cd45014610059575b600080fd5b610043610075565b60405161005091906100f7565b60405180910390f35b610073600480360381019061006e91906101ad565b61007e565b005b60008054905090565b60016000808282546100909190610250565b925050819055507f4eb87ce578078c4b015354536ca0550947444235376efaa354dee256f17ec62e3385428686866040516100d096959493929190610345565b60405180910390a150505050565b6000819050919050565b6100f1816100de565b82525050565b600060208201905061010c60008301846100e8565b92915050565b600080fd5b600080fd5b610125816100de565b811461013057600080fd5b50565b6000813590506101428161011c565b92915050565b600080fd5b600080fd5b600080fd5b60008083601f84011261016d5761016c610148565b5b8235905067ffffffffffffffff81111561018a5761018961014d565b5b6020830191508360018202830111156101a6576101a5610152565b5b9250929050565b600080600080606085870312156101c7576101c6610112565b5b60006101d587828801610133565b945050602085013567ffffffffffffffff8111156101f6576101f5610117565b5b61020287828801610157565b9350935050604061021587828801610133565b91505092959194509250565b7f4e487b7100000000000000000000000000000000000000000000000000000000600052601160045260246000fd5b600061025b826100de565b9150610266836100de565b9250827fffffffffffffffffffffffffffffffffffffffffffffffffffffffffffffffff0382111561029b5761029a610221565b5b828201905092915050565b600073ffffffffffffffffffffffffffffffffffffffff82169050919050565b60006102d1826102a6565b9050919050565b6102e1816102c6565b82525050565b600082825260208201905092915050565b82818337600083830152505050565b6000601f19601f8301169050919050565b600061032483856102e7565b93506103318385846102f8565b61033a83610307565b840190509392505050565b600060a08201905061035a60008301896102d8565b61036760208301886100e8565b61037460408301876100e8565b8181036060830152610387818587610318565b905061039660808301846100e8565b97965050505050505056fea2646970667358221220f6b2201e5704be5cc5bf34078232c6d4c75f8d899cc5dd91302f751fc7cc762f64736f6c634300080d0033",
  "immutableReferences": {},
  "source": "// SPDX-License-Identifier: UNLICENSED\r\npragma solidity ^0.8.13;\r\n\r\ncontract Emitter { \r\n    uint256 transactionCounter;\r\n\r\n    event purchaseCredits (\r\n        address from,\r\n        uint credit_amount,\r\n        uint256 timestamp,\r\n        string status,\r\n        uint256 end_date\r\n    );\r\n\r\n    // struct emitterStruct {\r\n    //     address emitterAdd; \r\n    //     uint credit_amount;\r\n    //     uint256 timestamp; \r\n    //     string status; // Retired, Active \r\n    //     uint256 end_date;\r\n    // }\r\n\r\n    // emitterStruct[] emitterTransactions;\r\n\r\n    function addToBlockChain(uint credit_amount, string calldata status, uint256 end_date) public {\r\n        transactionCounter += 1;\r\n        // emitterTransactions.push(emitterStruct(msg.sender, credit_amount, block.timestamp, status, end_date));\r\n        emit purchaseCredits(msg.sender, credit_amount, block.timestamp, status, end_date);\r\n    }\r\n    \r\n    // function getAllTransactions() public view returns (emitterStruct[] memory) {\r\n    //     return emitterTransactions;\r\n    // }\r\n\r\n    function getTransactionCount() public view returns (uint256) {\r\n        return transactionCounter;\r\n    }\r\n\r\n    // function transactionExists(bytes32 txHash) public view returns (bool) {\r\n    //     return transactions[txHash];\r\n    // }\r\n}",
  "sourcePath": "C:\\Users\\munys\\Capstone_Project\\truffle\\contracts\\Emitter.sol",
  "compiler": {
    "name": "solc",
    "version": "0.8.13+commit.abaa5c0e.Emscripten.clang"
  },
  "schemaVersion": "3.4.16",
  "updatedAt": "2024-09-09T16:53:22.122Z",
  "networkType": "ethereum",
  "devdoc": {
    "kind": "dev",
    "methods": {},
    "version": 1
  },
  "userdoc": {
    "kind": "user",
    "methods": {},
    "version": 1
  }
}