{
  "contractName": "Emitter",
  "abi": [
    {
      "anonymous": false,
      "inputs": [
        {
          "indexed": false,
          "internalType": "address",
          "name": "from",
          "type": "address"
        },
        {
          "indexed": false,
          "internalType": "uint256",
          "name": "timestamp",
          "type": "uint256"
        },
        {
          "components": [
            {
              "internalType": "string",
              "name": "project_name",
              "type": "string"
            },
            {
              "internalType": "uint256",
              "name": "credit_amount",
              "type": "uint256"
            },
            {
              "internalType": "uint256",
              "name": "date_bought",
              "type": "uint256"
            }
          ],
          "indexed": false,
          "internalType": "struct Emitter.emitterData",
          "name": "data",
          "type": "tuple"
        }
      ],
      "name": "purchaseCredits",
      "type": "event"
    },
    {
      "inputs": [
        {
          "components": [
            {
              "internalType": "string",
              "name": "project_name",
              "type": "string"
            },
            {
              "internalType": "uint256",
              "name": "credit_amount",
              "type": "uint256"
            },
            {
              "internalType": "uint256",
              "name": "date_bought",
              "type": "uint256"
            }
          ],
          "internalType": "struct Emitter.emitterData",
          "name": "data",
          "type": "tuple"
        }
      ],
      "name": "addToBlockChain",
      "outputs": [],
      "stateMutability": "nonpayable",
      "type": "function"
    },
    {
      "inputs": [],
      "name": "getTransactionCount",
      "outputs": [
        {
          "internalType": "uint256",
          "name": "",
          "type": "uint256"
        }
      ],
      "stateMutability": "view",
      "type": "function",
      "constant": true
    }
  ],
  "bytecode": "0x608060405234801561001057600080fd5b50610446806100206000396000f3fe608060405234801561001057600080fd5b50600436106100365760003560e01c80632e7700f01461003b578063907aa3e414610059575b600080fd5b610043610075565b60405161005091906100ee565b60405180910390f35b610073600480360381019061006e9190610137565b61007e565b005b60008054905090565b600160008082825461009091906101af565b925050819055507fd811b24aeac0e76544ce420e6704b05392c99b75b4d7a3f5b1d62247a4b5ad893342836040516100ca939291906103d2565b60405180910390a150565b6000819050919050565b6100e8816100d5565b82525050565b600060208201905061010360008301846100df565b92915050565b600080fd5b600080fd5b600080fd5b60006060828403121561012e5761012d610113565b5b81905092915050565b60006020828403121561014d5761014c610109565b5b600082013567ffffffffffffffff81111561016b5761016a61010e565b5b61017784828501610118565b91505092915050565b7f4e487b7100000000000000000000000000000000000000000000000000000000600052601160045260246000fd5b60006101ba826100d5565b91506101c5836100d5565b9250827fffffffffffffffffffffffffffffffffffffffffffffffffffffffffffffffff038211156101fa576101f9610180565b5b828201905092915050565b600073ffffffffffffffffffffffffffffffffffffffff82169050919050565b600061023082610205565b9050919050565b61024081610225565b82525050565b600080fd5b600080fd5b600080fd5b6000808335600160200384360303811261027257610271610250565b5b83810192508235915060208301925067ffffffffffffffff82111561029a57610299610246565b5b6001820236038413156102b0576102af61024b565b5b509250929050565b600082825260208201905092915050565b82818337600083830152505050565b6000601f19601f8301169050919050565b60006102f583856102b8565b93506103028385846102c9565b61030b836102d8565b840190509392505050565b61031f816100d5565b811461032a57600080fd5b50565b60008135905061033c81610316565b92915050565b6000610351602084018461032d565b905092915050565b610362816100d5565b82525050565b60006060830161037b6000840184610255565b858303600087015261038e8382846102e9565b9250505061039f6020840184610342565b6103ac6020860182610359565b506103ba6040840184610342565b6103c76040860182610359565b508091505092915050565b60006060820190506103e76000830186610237565b6103f460208301856100df565b81810360408301526104068184610368565b905094935050505056fea2646970667358221220e35558020d9e4259bb666307ab4baa73d9241d65c60fb05d0c275a8b69e7443564736f6c634300080d0033",
  "immutableReferences": {},
  "source": "// SPDX-License-Identifier: UNLICENSED\r\npragma solidity ^0.8.13;\r\n\r\ncontract Emitter {\r\n    uint256 transactionCounter;\r\n\r\n    struct emitterData {\r\n        string project_name;\r\n        uint credit_amount;\r\n        uint256 date_bought;\r\n    }\r\n\r\n    event purchaseCredits(address from, uint256 timestamp, emitterData data);\r\n\r\n    function addToBlockChain(emitterData calldata data) public {\r\n        transactionCounter += 1;\r\n        emit purchaseCredits(msg.sender, block.timestamp, data);\r\n    }\r\n\r\n    function getTransactionCount() public view returns (uint256) {\r\n        return transactionCounter;\r\n    }\r\n}\r\n",
  "sourcePath": "C:\\Users\\munys\\Capstone_Project\\truffle\\contracts\\Emitter.sol",
  "compiler": {
    "name": "solc",
    "version": "0.8.13+commit.abaa5c0e.Emscripten.clang"
  },
  "schemaVersion": "3.4.16",
  "updatedAt": "2024-10-04T15:51:03.042Z",
  "networkType": "ethereum",
  "devdoc": {
    "kind": "dev",
    "methods": {},
    "version": 1
  },
  "userdoc": {
    "kind": "user",
    "methods": {},
    "version": 1
  }
}