{
  "contractName": "Emitter",
  "abi": [
    {
      "anonymous": false,
      "inputs": [
        {
          "indexed": true,
          "internalType": "bytes32",
          "name": "txHash",
          "type": "bytes32"
        },
        {
          "indexed": false,
          "internalType": "address",
          "name": "from",
          "type": "address"
        },
        {
          "indexed": false,
          "internalType": "uint256",
          "name": "amount",
          "type": "uint256"
        },
        {
          "indexed": false,
          "internalType": "uint256",
          "name": "timestamp",
          "type": "uint256"
        },
        {
          "indexed": false,
          "internalType": "uint256",
          "name": "end_date",
          "type": "uint256"
        }
      ],
      "name": "purchaseCredits",
      "type": "event"
    },
    {
      "inputs": [
        {
          "internalType": "bytes32",
          "name": "",
          "type": "bytes32"
        }
      ],
      "name": "transactions",
      "outputs": [
        {
          "internalType": "bool",
          "name": "",
          "type": "bool"
        }
      ],
      "stateMutability": "view",
      "type": "function",
      "constant": true
    },
    {
      "inputs": [
        {
          "internalType": "uint256",
          "name": "amount",
          "type": "uint256"
        },
        {
          "internalType": "uint256",
          "name": "end_date",
          "type": "uint256"
        }
      ],
      "name": "addToBlockChain",
      "outputs": [
        {
          "internalType": "bytes32",
          "name": "",
          "type": "bytes32"
        }
      ],
      "stateMutability": "nonpayable",
      "type": "function"
    },
    {
      "inputs": [],
      "name": "getAllTransactions",
      "outputs": [
        {
          "components": [
            {
              "internalType": "address",
              "name": "emitterAdd",
              "type": "address"
            },
            {
              "internalType": "uint256",
              "name": "amount",
              "type": "uint256"
            },
            {
              "internalType": "uint256",
              "name": "timestamp",
              "type": "uint256"
            },
            {
              "internalType": "uint256",
              "name": "end_date",
              "type": "uint256"
            }
          ],
          "internalType": "struct Emitter.emitterStruct[]",
          "name": "",
          "type": "tuple[]"
        }
      ],
      "stateMutability": "view",
      "type": "function",
      "constant": true
    },
    {
      "inputs": [],
      "name": "getTransactionCount",
      "outputs": [
        {
          "internalType": "uint256",
          "name": "",
          "type": "uint256"
        }
      ],
      "stateMutability": "view",
      "type": "function",
      "constant": true
    },
    {
      "inputs": [
        {
          "internalType": "bytes32",
          "name": "txHash",
          "type": "bytes32"
        }
      ],
      "name": "transactionExists",
      "outputs": [
        {
          "internalType": "bool",
          "name": "",
          "type": "bool"
        }
      ],
      "stateMutability": "view",
      "type": "function",
      "constant": true
    }
  ],
  "bytecode": "0x608060405234801561001057600080fd5b5061087a806100206000396000f3fe608060405234801561001057600080fd5b50600436106100575760003560e01c806327506f531461005c5780632dc4efcb1461007a5780632e7700f0146100aa57806349d23039146100c8578063642f2eaf146100f8575b600080fd5b610064610128565b6040516100719190610534565b60405180910390f35b610094600480360381019061008f9190610591565b6101fb565b6040516100a191906105d9565b60405180910390f35b6100b2610225565b6040516100bf9190610603565b60405180910390f35b6100e260048036038101906100dd919061064a565b61022e565b6040516100ef9190610699565b60405180910390f35b610112600480360381019061010d9190610591565b6103b6565b60405161011f91906105d9565b60405180910390f35b60606002805480602002602001604051908101604052809291908181526020016000905b828210156101f257838290600052602060002090600402016040518060800160405290816000820160009054906101000a900473ffffffffffffffffffffffffffffffffffffffff1673ffffffffffffffffffffffffffffffffffffffff1673ffffffffffffffffffffffffffffffffffffffff16815260200160018201548152602001600282015481526020016003820154815250508152602001906001019061014c565b50505050905090565b60006001600083815260200190815260200160002060009054906101000a900460ff169050919050565b60008054905090565b6000600160008082825461024291906106e3565b92505081905550600260405180608001604052803373ffffffffffffffffffffffffffffffffffffffff16815260200185815260200142815260200184815250908060018154018082558091505060019003906000526020600020906004020160009091909190915060008201518160000160006101000a81548173ffffffffffffffffffffffffffffffffffffffff021916908373ffffffffffffffffffffffffffffffffffffffff160217905550602082015181600101556040820151816002015560608201518160030155505060003384428560405160200161032b94939291906107a2565b604051602081830303815290604052805190602001209050600180600083815260200190815260200160002060006101000a81548160ff021916908315150217905550807f72b62457d2256eef19a7d3a4eb618372e13cf261d97a78454f2d8bc0c6334c09338642876040516103a494939291906107ff565b60405180910390a28091505092915050565b60016020528060005260406000206000915054906101000a900460ff1681565b600081519050919050565b600082825260208201905092915050565b6000819050602082019050919050565b600073ffffffffffffffffffffffffffffffffffffffff82169050919050565b600061042d82610402565b9050919050565b61043d81610422565b82525050565b6000819050919050565b61045681610443565b82525050565b6080820160008201516104726000850182610434565b506020820151610485602085018261044d565b506040820151610498604085018261044d565b5060608201516104ab606085018261044d565b50505050565b60006104bd838361045c565b60808301905092915050565b6000602082019050919050565b60006104e1826103d6565b6104eb81856103e1565b93506104f6836103f2565b8060005b8381101561052757815161050e88826104b1565b9750610519836104c9565b9250506001810190506104fa565b5085935050505092915050565b6000602082019050818103600083015261054e81846104d6565b905092915050565b600080fd5b6000819050919050565b61056e8161055b565b811461057957600080fd5b50565b60008135905061058b81610565565b92915050565b6000602082840312156105a7576105a6610556565b5b60006105b58482850161057c565b91505092915050565b60008115159050919050565b6105d3816105be565b82525050565b60006020820190506105ee60008301846105ca565b92915050565b6105fd81610443565b82525050565b600060208201905061061860008301846105f4565b92915050565b61062781610443565b811461063257600080fd5b50565b6000813590506106448161061e565b92915050565b6000806040838503121561066157610660610556565b5b600061066f85828601610635565b925050602061068085828601610635565b9150509250929050565b6106938161055b565b82525050565b60006020820190506106ae600083018461068a565b92915050565b7f4e487b7100000000000000000000000000000000000000000000000000000000600052601160045260246000fd5b60006106ee82610443565b91506106f983610443565b9250827fffffffffffffffffffffffffffffffffffffffffffffffffffffffffffffffff0382111561072e5761072d6106b4565b5b828201905092915050565b60008160601b9050919050565b600061075182610739565b9050919050565b600061076382610746565b9050919050565b61077b61077682610422565b610758565b82525050565b6000819050919050565b61079c61079782610443565b610781565b82525050565b60006107ae828761076a565b6014820191506107be828661078b565b6020820191506107ce828561078b565b6020820191506107de828461078b565b60208201915081905095945050505050565b6107f981610422565b82525050565b600060808201905061081460008301876107f0565b61082160208301866105f4565b61082e60408301856105f4565b61083b60608301846105f4565b9594505050505056fea26469706673582212203f9372c231735da10784c480cc9147b41159e40c7e194dfe70d98ca12269580b64736f6c634300080d0033",
  "immutableReferences": {},
  "source": "// SPDX-License-Identifier: UNLICENSED\r\npragma solidity ^0.8.13;\r\n\r\ncontract Emitter {\r\n    uint256 transactionCounter;\r\n    mapping(bytes32 => bool) public transactions;\r\n\r\n    event purchaseCredits(\r\n        bytes32 indexed txHash,\r\n        address from,\r\n        uint amount,\r\n        uint256 timestamp,\r\n        uint256 end_date\r\n    );\r\n\r\n    struct emitterStruct {\r\n        address emitterAdd;\r\n        uint amount;\r\n        uint256 timestamp;\r\n        uint256 end_date;\r\n    }\r\n\r\n    emitterStruct[] emitterTransactions;\r\n\r\n    function addToBlockChain(uint amount, uint256 end_date) public returns (bytes32) {\r\n        transactionCounter += 1;\r\n        emitterTransactions.push(\r\n            emitterStruct(msg.sender, amount, block.timestamp, end_date)\r\n        );\r\n\r\n        bytes32 txHash = keccak256(abi.encodePacked(msg.sender, amount, block.timestamp, end_date));\r\n        transactions[txHash] = true;\r\n\r\n        emit purchaseCredits(txHash, msg.sender, amount, block.timestamp, end_date);\r\n        return txHash;\r\n    }\r\n\r\n    function getAllTransactions() public view returns (emitterStruct[] memory) {\r\n        return emitterTransactions;\r\n    }\r\n\r\n    function getTransactionCount() external view returns (uint256) {\r\n        return transactionCounter;\r\n    }\r\n\r\n    function transactionExists(bytes32 txHash) public view returns (bool) {\r\n        return transactions[txHash];\r\n    }\r\n}",
  "sourcePath": "C:\\Users\\munys\\OneDrive - University of Canberra (student)\\Desktop\\capstone_project\\truffle\\contracts\\Emitter.sol",
  "compiler": {
    "name": "solc",
    "version": "0.8.13+commit.abaa5c0e.Emscripten.clang"
  },
  "schemaVersion": "3.4.16",
  "updatedAt": "2024-09-03T03:54:16.457Z",
  "networkType": "ethereum",
  "devdoc": {
    "kind": "dev",
    "methods": {},
    "version": 1
  },
  "userdoc": {
    "kind": "user",
    "methods": {},
    "version": 1
  }
}