{
  "contractName": "Issuer",
  "abi": [
    {
      "anonymous": false,
      "inputs": [
        {
          "indexed": false,
          "internalType": "address",
          "name": "from",
          "type": "address"
        },
        {
          "indexed": false,
          "internalType": "uint256",
          "name": "credit_amount",
          "type": "uint256"
        },
        {
          "indexed": false,
          "internalType": "uint256",
          "name": "timestamp",
          "type": "uint256"
        },
        {
          "indexed": false,
          "internalType": "string",
          "name": "active_status",
          "type": "string"
        },
        {
          "indexed": false,
          "internalType": "uint256",
          "name": "end_date",
          "type": "uint256"
        },
        {
          "indexed": false,
          "internalType": "uint256",
          "name": "date_issued",
          "type": "uint256"
        },
        {
          "indexed": false,
          "internalType": "string",
          "name": "verification_status",
          "type": "string"
        }
      ],
      "name": "issueCredits",
      "type": "event"
    },
    {
      "inputs": [
        {
          "internalType": "bytes32",
          "name": "",
          "type": "bytes32"
        }
      ],
      "name": "transactions",
      "outputs": [
        {
          "internalType": "bool",
          "name": "",
          "type": "bool"
        }
      ],
      "stateMutability": "view",
      "type": "function",
      "constant": true
    },
    {
      "inputs": [
        {
          "internalType": "uint256",
          "name": "credit_amount",
          "type": "uint256"
        },
        {
          "internalType": "string",
          "name": "active_status",
          "type": "string"
        },
        {
          "internalType": "uint256",
          "name": "end_date",
          "type": "uint256"
        },
        {
          "internalType": "uint256",
          "name": "date_issued",
          "type": "uint256"
        },
        {
          "internalType": "string",
          "name": "verification_status",
          "type": "string"
        }
      ],
      "name": "addToBlockChain",
      "outputs": [],
      "stateMutability": "nonpayable",
      "type": "function"
    },
    {
      "inputs": [],
      "name": "getTransactionCount",
      "outputs": [
        {
          "internalType": "uint256",
          "name": "",
          "type": "uint256"
        }
      ],
      "stateMutability": "view",
      "type": "function",
      "constant": true
    }
  ],
  "bytecode": "0x608060405234801561001057600080fd5b50610541806100206000396000f3fe608060405234801561001057600080fd5b50600436106100415760003560e01c80632e7700f014610046578063642f2eaf14610064578063ba042c9e14610094575b600080fd5b61004e6100b0565b60405161005b919061015b565b60405180910390f35b61007e600480360381019061007991906101b6565b6100b9565b60405161008b91906101fe565b60405180910390f35b6100ae60048036038101906100a991906102aa565b6100d9565b005b60008054905090565b60016020528060005260406000206000915054906101000a900460ff1681565b60016000808282546100eb9190610395565b925050819055507ff3b5fea20f56017dc23ab1d6f201e0fe56b234b967a83304fc09f3c3edc444993388428989898989896040516101319998979695949392919061048a565b60405180910390a150505050505050565b6000819050919050565b61015581610142565b82525050565b6000602082019050610170600083018461014c565b92915050565b600080fd5b600080fd5b6000819050919050565b61019381610180565b811461019e57600080fd5b50565b6000813590506101b08161018a565b92915050565b6000602082840312156101cc576101cb610176565b5b60006101da848285016101a1565b91505092915050565b60008115159050919050565b6101f8816101e3565b82525050565b600060208201905061021360008301846101ef565b92915050565b61022281610142565b811461022d57600080fd5b50565b60008135905061023f81610219565b92915050565b600080fd5b600080fd5b600080fd5b60008083601f84011261026a57610269610245565b5b8235905067ffffffffffffffff8111156102875761028661024a565b5b6020830191508360018202830111156102a3576102a261024f565b5b9250929050565b600080600080600080600060a0888a0312156102c9576102c8610176565b5b60006102d78a828b01610230565b975050602088013567ffffffffffffffff8111156102f8576102f761017b565b5b6103048a828b01610254565b965096505060406103178a828b01610230565b94505060606103288a828b01610230565b935050608088013567ffffffffffffffff8111156103495761034861017b565b5b6103558a828b01610254565b925092505092959891949750929550565b7f4e487b7100000000000000000000000000000000000000000000000000000000600052601160045260246000fd5b60006103a082610142565b91506103ab83610142565b9250827fffffffffffffffffffffffffffffffffffffffffffffffffffffffffffffffff038211156103e0576103df610366565b5b828201905092915050565b600073ffffffffffffffffffffffffffffffffffffffff82169050919050565b6000610416826103eb565b9050919050565b6104268161040b565b82525050565b600082825260208201905092915050565b82818337600083830152505050565b6000601f19601f8301169050919050565b6000610469838561042c565b935061047683858461043d565b61047f8361044c565b840190509392505050565b600060e08201905061049f600083018c61041d565b6104ac602083018b61014c565b6104b9604083018a61014c565b81810360608301526104cc81888a61045d565b90506104db608083018761014c565b6104e860a083018661014c565b81810360c08301526104fb81848661045d565b90509a995050505050505050505056fea26469706673582212200345f0da39ae475a758124b68132755efc82198ced7ca9ea5911f333f699a0e164736f6c634300080d0033",
  "immutableReferences": {},
  "source": "// SPDX-License-Identifier: UNLICENSED\r\npragma solidity ^0.8.13;\r\n\r\ncontract Issuer {\r\n    uint256 transactionCounter;\r\n    mapping(bytes32 => bool) public transactions;\r\n\r\n    event issueCredits(\r\n        address from,\r\n        uint credit_amount,\r\n        uint256 timestamp,\r\n        string active_status,\r\n        uint256 end_date,\r\n        uint256 date_issued,\r\n        string verification_status\r\n    );\r\n\r\n    // struct issuerStruct {\r\n    //     address issuerAdd;\r\n    //     uint credit_amount;\r\n    //     uint256 timestamp;\r\n    //     string status; // Retired, Active\r\n    //     uint256 end_date;\r\n    // }\r\n\r\n    // issuerStruct[] issuerTransactions;\r\n\r\n    function addToBlockChain(\r\n        uint credit_amount,\r\n        string calldata active_status,\r\n        uint256 end_date,\r\n        uint256 date_issued,\r\n        string calldata verification_status\r\n    ) public {\r\n        transactionCounter += 1;\r\n        // issuerTransactions.push(issuerStruct(msg.sender, credit_amount, block.timestamp, status, end_date));\r\n        emit issueCredits(\r\n            msg.sender,\r\n            credit_amount,\r\n            block.timestamp,\r\n            active_status,\r\n            end_date,\r\n            date_issued,\r\n            verification_status\r\n        );\r\n    }\r\n\r\n    function getTransactionCount() public view returns (uint256) {\r\n        return transactionCounter;\r\n    }\r\n\r\n    // function getAllTransactions() public view returns (issuerStruct[] memory) {\r\n    //     return issuerTransactions;\r\n    // }\r\n\r\n    // function transactionExists(bytes32 txHash) public view returns (bool) {\r\n    //     return transactions[txHash];\r\n    // }\r\n}\r\n",
  "sourcePath": "C:\\Users\\munys\\Capstone_Project\\truffle\\contracts\\Issuer.sol",
  "compiler": {
    "name": "solc",
    "version": "0.8.13+commit.abaa5c0e.Emscripten.clang"
  },
  "schemaVersion": "3.4.16",
  "updatedAt": "2024-09-09T16:53:22.125Z",
  "networkType": "ethereum",
  "devdoc": {
    "kind": "dev",
    "methods": {},
    "version": 1
  },
  "userdoc": {
    "kind": "user",
    "methods": {},
    "version": 1
  }
}