{
  "contractName": "Verifier",
  "abi": [
    {
      "anonymous": false,
      "inputs": [
        {
          "indexed": false,
          "internalType": "address",
          "name": "from",
          "type": "address"
        },
        {
          "indexed": false,
          "internalType": "uint256",
          "name": "timestamp",
          "type": "uint256"
        },
        {
          "indexed": false,
          "internalType": "string",
          "name": "verified_txHash",
          "type": "string"
        }
      ],
      "name": "regulateTransactions",
      "type": "event"
    },
    {
      "inputs": [
        {
          "internalType": "string",
          "name": "verified_txHash",
          "type": "string"
        }
      ],
      "name": "addToBlockChain",
      "outputs": [],
      "stateMutability": "nonpayable",
      "type": "function"
    },
    {
      "inputs": [],
      "name": "getTransactionCount",
      "outputs": [
        {
          "internalType": "uint256",
          "name": "",
          "type": "uint256"
        }
      ],
      "stateMutability": "view",
      "type": "function",
      "constant": true
    }
  ],
  "bytecode": "0x608060405234801561001057600080fd5b50610362806100206000396000f3fe608060405234801561001057600080fd5b50600436106100365760003560e01c80632e7700f01461003b57806393495b1714610059575b600080fd5b610043610075565b60405161005091906100f1565b60405180910390f35b610073600480360381019061006e919061017b565b61007e565b005b60008054905090565b600160008082825461009091906101f7565b925050819055507f1f09423ff1e5d2907ad6838aea1e8cb10b3e85ae303ba77c292f921c52608095334284846040516100cc94939291906102ec565b60405180910390a15050565b6000819050919050565b6100eb816100d8565b82525050565b600060208201905061010660008301846100e2565b92915050565b600080fd5b600080fd5b600080fd5b600080fd5b600080fd5b60008083601f84011261013b5761013a610116565b5b8235905067ffffffffffffffff8111156101585761015761011b565b5b60208301915083600182028301111561017457610173610120565b5b9250929050565b600080602083850312156101925761019161010c565b5b600083013567ffffffffffffffff8111156101b0576101af610111565b5b6101bc85828601610125565b92509250509250929050565b7f4e487b7100000000000000000000000000000000000000000000000000000000600052601160045260246000fd5b6000610202826100d8565b915061020d836100d8565b9250827fffffffffffffffffffffffffffffffffffffffffffffffffffffffffffffffff03821115610242576102416101c8565b5b828201905092915050565b600073ffffffffffffffffffffffffffffffffffffffff82169050919050565b60006102788261024d565b9050919050565b6102888161026d565b82525050565b600082825260208201905092915050565b82818337600083830152505050565b6000601f19601f8301169050919050565b60006102cb838561028e565b93506102d883858461029f565b6102e1836102ae565b840190509392505050565b6000606082019050610301600083018761027f565b61030e60208301866100e2565b81810360408301526103218184866102bf565b90509594505050505056fea264697066735822122008e0afe23a739e7e08bef25f29cc6e5537b914f6ebef7b7f90b3be9a8b4bc19a64736f6c634300080d0033",
  "immutableReferences": {},
  "source": "// SPDX-License-Identifier: UNLICENSED\r\npragma solidity ^0.8.13;\r\n\r\ncontract Verifier {\r\n    uint256 transactionCounter;\r\n\r\n    event regulateTransactions(\r\n        address from,\r\n        uint256 timestamp,\r\n        string verified_txHash\r\n    );\r\n\r\n    function addToBlockChain(string calldata verified_txHash) public {\r\n        transactionCounter += 1;\r\n        emit regulateTransactions(msg.sender, block.timestamp, verified_txHash);\r\n    }\r\n\r\n    function getTransactionCount() public view returns (uint256) {\r\n        return transactionCounter;\r\n    }\r\n}\r\n",
  "sourcePath": "C:\\Users\\munys\\Capstone_Project\\truffle\\contracts\\Verifier.sol",
  "compiler": {
    "name": "solc",
    "version": "0.8.13+commit.abaa5c0e.Emscripten.clang"
  },
  "schemaVersion": "3.4.16",
  "updatedAt": "2024-10-10T17:07:05.390Z",
  "networkType": "ethereum",
  "devdoc": {
    "kind": "dev",
    "methods": {},
    "version": 1
  },
  "userdoc": {
    "kind": "user",
    "methods": {},
    "version": 1
  }
}