{
  "contractName": "Verifier",
  "abi": [
    {
      "anonymous": false,
      "inputs": [
        {
          "indexed": false,
          "internalType": "address",
          "name": "from",
          "type": "address"
        },
        {
          "indexed": false,
          "internalType": "string",
          "name": "txHash",
          "type": "string"
        },
        {
          "indexed": false,
          "internalType": "string",
          "name": "updated_status",
          "type": "string"
        }
      ],
      "name": "regulateTransactions",
      "type": "event"
    },
    {
      "inputs": [
        {
          "internalType": "string",
          "name": "txHash",
          "type": "string"
        },
        {
          "internalType": "string",
          "name": "updated_status",
          "type": "string"
        }
      ],
      "name": "regulate",
      "outputs": [],
      "stateMutability": "nonpayable",
      "type": "function"
    },
    {
      "inputs": [],
      "name": "getTransactionCount",
      "outputs": [
        {
          "internalType": "uint256",
          "name": "",
          "type": "uint256"
        }
      ],
      "stateMutability": "view",
      "type": "function",
      "constant": true
    }
  ],
  "bytecode": "0x608060405234801561001057600080fd5b506103a3806100206000396000f3fe608060405234801561001057600080fd5b50600436106100365760003560e01c80632e7700f01461003b578063b44a457314610059575b600080fd5b610043610075565b60405161005091906100f5565b60405180910390f35b610073600480360381019061006e919061017f565b61007e565b005b60008054905090565b6001600080828254610090919061022f565b925050819055507f024b623688b52498f211862eb98f63f471907412d8f0851bad4fbf32435a727733858585856040516100ce959493929190610324565b60405180910390a150505050565b6000819050919050565b6100ef816100dc565b82525050565b600060208201905061010a60008301846100e6565b92915050565b600080fd5b600080fd5b600080fd5b600080fd5b600080fd5b60008083601f84011261013f5761013e61011a565b5b8235905067ffffffffffffffff81111561015c5761015b61011f565b5b60208301915083600182028301111561017857610177610124565b5b9250929050565b6000806000806040858703121561019957610198610110565b5b600085013567ffffffffffffffff8111156101b7576101b6610115565b5b6101c387828801610129565b9450945050602085013567ffffffffffffffff8111156101e6576101e5610115565b5b6101f287828801610129565b925092505092959194509250565b7f4e487b7100000000000000000000000000000000000000000000000000000000600052601160045260246000fd5b600061023a826100dc565b9150610245836100dc565b9250827fffffffffffffffffffffffffffffffffffffffffffffffffffffffffffffffff0382111561027a57610279610200565b5b828201905092915050565b600073ffffffffffffffffffffffffffffffffffffffff82169050919050565b60006102b082610285565b9050919050565b6102c0816102a5565b82525050565b600082825260208201905092915050565b82818337600083830152505050565b6000601f19601f8301169050919050565b600061030383856102c6565b93506103108385846102d7565b610319836102e6565b840190509392505050565b600060608201905061033960008301886102b7565b818103602083015261034c8186886102f7565b905081810360408301526103618184866102f7565b9050969550505050505056fea2646970667358221220620681d461cdbfad2017710d7b70d6e48e81282331d91b82afd46e6be6e4278664736f6c634300080d0033",
  "immutableReferences": {},
  "source": "// SPDX-License-Identifier: UNLICENSED\r\npragma solidity ^0.8.13;\r\nimport \"./Issuer.sol\";\r\nimport \"./Emitter.sol\";\r\n\r\ncontract Verifier {\r\n    uint256 transactionCounter;\r\n\r\n    event regulateTransactions(\r\n        address from, \r\n        string txHash,\r\n        string updated_status\r\n    );\r\n\r\n    function regulate(string calldata txHash, string calldata updated_status) public {\r\n        transactionCounter += 1;\r\n        emit regulateTransactions(msg.sender, txHash, updated_status);\r\n    }\r\n\r\n    function getTransactionCount() public view returns (uint256) {\r\n        return transactionCounter;\r\n    }\r\n}\r\n",
  "sourcePath": "C:\\Users\\munys\\Capstone_Project\\truffle\\contracts\\Verifier.sol",
  "compiler": {
    "name": "solc",
    "version": "0.8.13+commit.abaa5c0e.Emscripten.clang"
  },
  "schemaVersion": "3.4.16",
  "updatedAt": "2024-09-09T16:53:22.120Z",
  "networkType": "ethereum",
  "devdoc": {
    "kind": "dev",
    "methods": {},
    "version": 1
  },
  "userdoc": {
    "kind": "user",
    "methods": {},
    "version": 1
  }
}