{
  "contractName": "Issuer",
  "abi": [
    {
      "anonymous": false,
      "inputs": [
        {
          "indexed": false,
          "internalType": "address",
          "name": "from",
          "type": "address"
        },
        {
          "indexed": false,
          "internalType": "uint256",
          "name": "timestap",
          "type": "uint256"
        },
        {
          "components": [
            {
              "internalType": "uint256",
              "name": "credit_amount",
              "type": "uint256"
            },
            {
              "internalType": "string",
              "name": "project_name",
              "type": "string"
            },
            {
              "internalType": "string",
              "name": "active_status",
              "type": "string"
            },
            {
              "internalType": "string",
              "name": "date_covered",
              "type": "string"
            },
            {
              "internalType": "uint256",
              "name": "date_issued",
              "type": "uint256"
            },
            {
              "internalType": "string",
              "name": "verification_status",
              "type": "string"
            },
            {
              "internalType": "string",
              "name": "prev_tx",
              "type": "string"
            }
          ],
          "indexed": false,
          "internalType": "struct Issuer.issuerData",
          "name": "data",
          "type": "tuple"
        }
      ],
      "name": "issueCredits",
      "type": "event"
    },
    {
      "inputs": [
        {
          "components": [
            {
              "internalType": "uint256",
              "name": "credit_amount",
              "type": "uint256"
            },
            {
              "internalType": "string",
              "name": "project_name",
              "type": "string"
            },
            {
              "internalType": "string",
              "name": "active_status",
              "type": "string"
            },
            {
              "internalType": "string",
              "name": "date_covered",
              "type": "string"
            },
            {
              "internalType": "uint256",
              "name": "date_issued",
              "type": "uint256"
            },
            {
              "internalType": "string",
              "name": "verification_status",
              "type": "string"
            },
            {
              "internalType": "string",
              "name": "prev_tx",
              "type": "string"
            }
          ],
          "internalType": "struct Issuer.issuerData",
          "name": "data",
          "type": "tuple"
        }
      ],
      "name": "addToBlockChain",
      "outputs": [],
      "stateMutability": "nonpayable",
      "type": "function"
    },
    {
      "inputs": [],
      "name": "getTransactionCount",
      "outputs": [
        {
          "internalType": "uint256",
          "name": "",
          "type": "uint256"
        }
      ],
      "stateMutability": "view",
      "type": "function",
      "constant": true
    }
  ],
  "bytecode": "0x608060405234801561001057600080fd5b506104d6806100206000396000f3fe608060405234801561001057600080fd5b50600436106100365760003560e01c80632e7700f01461003b57806334be31df14610059575b600080fd5b610043610075565b60405161005091906100ee565b60405180910390f35b610073600480360381019061006e9190610137565b61007e565b005b60008054905090565b600160008082825461009091906101af565b925050819055507f9d1916f3c265a16f8528cd50a415a9a6d9bf64f189c7ae4b7c6ed3c7ccf4a11d3342836040516100ca93929190610462565b60405180910390a150565b6000819050919050565b6100e8816100d5565b82525050565b600060208201905061010360008301846100df565b92915050565b600080fd5b600080fd5b600080fd5b600060e0828403121561012e5761012d610113565b5b81905092915050565b60006020828403121561014d5761014c610109565b5b600082013567ffffffffffffffff81111561016b5761016a61010e565b5b61017784828501610118565b91505092915050565b7f4e487b7100000000000000000000000000000000000000000000000000000000600052601160045260246000fd5b60006101ba826100d5565b91506101c5836100d5565b9250827fffffffffffffffffffffffffffffffffffffffffffffffffffffffffffffffff038211156101fa576101f9610180565b5b828201905092915050565b600073ffffffffffffffffffffffffffffffffffffffff82169050919050565b600061023082610205565b9050919050565b61024081610225565b82525050565b61024f816100d5565b811461025a57600080fd5b50565b60008135905061026c81610246565b92915050565b6000610281602084018461025d565b905092915050565b610292816100d5565b82525050565b600080fd5b600080fd5b600080fd5b600080833560016020038436030381126102c4576102c36102a2565b5b83810192508235915060208301925067ffffffffffffffff8211156102ec576102eb610298565b5b6001820236038413156103025761030161029d565b5b509250929050565b600082825260208201905092915050565b82818337600083830152505050565b6000601f19601f8301169050919050565b6000610347838561030a565b935061035483858461031b565b61035d8361032a565b840190509392505050565b600060e0830161037b6000840184610272565b6103886000860182610289565b5061039660208401846102a7565b85830360208701526103a983828461033b565b925050506103ba60408401846102a7565b85830360408701526103cd83828461033b565b925050506103de60608401846102a7565b85830360608701526103f183828461033b565b925050506104026080840184610272565b61040f6080860182610289565b5061041d60a08401846102a7565b85830360a087015261043083828461033b565b9250505061044160c08401846102a7565b85830360c087015261045483828461033b565b925050508091505092915050565b60006060820190506104776000830186610237565b61048460208301856100df565b81810360408301526104968184610368565b905094935050505056fea2646970667358221220bf465d68f5a2d74ab16620cc9b311a40af859f46236df6c4f200bc75f488bdaf64736f6c634300080d0033",
  "immutableReferences": {},
  "source": "// SPDX-License-Identifier: UNLICENSED\r\npragma solidity ^0.8.13;\r\n\r\ncontract Issuer {\r\n    uint256 transactionCounter;\r\n\r\n    struct issuerData {\r\n        uint credit_amount;\r\n        string project_name;\r\n        string active_status;\r\n        string date_covered;\r\n        uint256 date_issued;\r\n        string verification_status;\r\n        string prev_tx;\r\n    }\r\n\r\n    event issueCredits(address from, uint256 timestap, issuerData data);\r\n\r\n    function addToBlockChain(issuerData calldata data) public {\r\n        transactionCounter += 1;\r\n        emit issueCredits(msg.sender, block.timestamp, data);\r\n    }\r\n\r\n    function getTransactionCount() public view returns (uint256) {\r\n        return transactionCounter;\r\n    }\r\n}\r\n",
  "sourcePath": "C:\\Users\\munys\\Capstone_Project\\truffle\\contracts\\Issuer.sol",
  "compiler": {
    "name": "solc",
    "version": "0.8.13+commit.abaa5c0e.Emscripten.clang"
  },
  "schemaVersion": "3.4.16",
  "updatedAt": "2024-09-19T15:09:58.661Z",
  "networkType": "ethereum",
  "devdoc": {
    "kind": "dev",
    "methods": {},
    "version": 1
  },
  "userdoc": {
    "kind": "user",
    "methods": {},
    "version": 1
  }
}