{
  "contractName": "Issuer",
  "abi": [
    {
      "anonymous": false,
      "inputs": [
        {
          "indexed": true,
          "internalType": "bytes32",
          "name": "txHash",
          "type": "bytes32"
        },
        {
          "indexed": false,
          "internalType": "address",
          "name": "from",
          "type": "address"
        },
        {
          "indexed": false,
          "internalType": "uint256",
          "name": "credit_amount",
          "type": "uint256"
        },
        {
          "indexed": false,
          "internalType": "uint256",
          "name": "timestamp",
          "type": "uint256"
        },
        {
          "indexed": false,
          "internalType": "string",
          "name": "status",
          "type": "string"
        },
        {
          "indexed": false,
          "internalType": "uint256",
          "name": "end_date",
          "type": "uint256"
        }
      ],
      "name": "issueCredits",
      "type": "event"
    },
    {
      "inputs": [
        {
          "internalType": "bytes32",
          "name": "",
          "type": "bytes32"
        }
      ],
      "name": "transactions",
      "outputs": [
        {
          "internalType": "bool",
          "name": "",
          "type": "bool"
        }
      ],
      "stateMutability": "view",
      "type": "function",
      "constant": true
    },
    {
      "inputs": [
        {
          "internalType": "uint256",
          "name": "credit_amount",
          "type": "uint256"
        },
        {
          "internalType": "string",
          "name": "status",
          "type": "string"
        },
        {
          "internalType": "uint256",
          "name": "end_date",
          "type": "uint256"
        }
      ],
      "name": "addToBlockChain",
      "outputs": [
        {
          "internalType": "bytes32",
          "name": "",
          "type": "bytes32"
        }
      ],
      "stateMutability": "nonpayable",
      "type": "function"
    },
    {
      "inputs": [],
      "name": "getAllTransactions",
      "outputs": [
        {
          "components": [
            {
              "internalType": "address",
              "name": "issuerAdd",
              "type": "address"
            },
            {
              "internalType": "uint256",
              "name": "credit_amount",
              "type": "uint256"
            },
            {
              "internalType": "uint256",
              "name": "timestamp",
              "type": "uint256"
            },
            {
              "internalType": "string",
              "name": "status",
              "type": "string"
            },
            {
              "internalType": "uint256",
              "name": "end_date",
              "type": "uint256"
            }
          ],
          "internalType": "struct Issuer.issuerStruct[]",
          "name": "",
          "type": "tuple[]"
        }
      ],
      "stateMutability": "view",
      "type": "function",
      "constant": true
    },
    {
      "inputs": [],
      "name": "getTransactionCount",
      "outputs": [
        {
          "internalType": "uint256",
          "name": "",
          "type": "uint256"
        }
      ],
      "stateMutability": "view",
      "type": "function",
      "constant": true
    },
    {
      "inputs": [
        {
          "internalType": "bytes32",
          "name": "txHash",
          "type": "bytes32"
        }
      ],
      "name": "transactionExists",
      "outputs": [
        {
          "internalType": "bool",
          "name": "",
          "type": "bool"
        }
      ],
      "stateMutability": "view",
      "type": "function",
      "constant": true
    }
  ],
  "bytecode": "0x608060405234801561001057600080fd5b50610c8e806100206000396000f3fe608060405234801561001057600080fd5b50600436106100575760003560e01c806327506f531461005c5780632dc4efcb1461007a5780632e7700f0146100aa578063642f2eaf146100c8578063de7cd450146100f8575b600080fd5b610064610128565b60405161007191906107a7565b60405180910390f35b610094600480360381019061008f9190610809565b61028d565b6040516100a19190610851565b60405180910390f35b6100b26102b7565b6040516100bf919061087b565b60405180910390f35b6100e260048036038101906100dd9190610809565b6102c0565b6040516100ef9190610851565b60405180910390f35b610112600480360381019061010d9190610927565b6102e0565b60405161011f91906109aa565b60405180910390f35b60606002805480602002602001604051908101604052809291908181526020016000905b8282101561028457838290600052602060002090600502016040518060a00160405290816000820160009054906101000a900473ffffffffffffffffffffffffffffffffffffffff1673ffffffffffffffffffffffffffffffffffffffff1673ffffffffffffffffffffffffffffffffffffffff16815260200160018201548152602001600282015481526020016003820180546101e9906109f4565b80601f0160208091040260200160405190810160405280929190818152602001828054610215906109f4565b80156102625780601f1061023757610100808354040283529160200191610262565b820191906000526020600020905b81548152906001019060200180831161024557829003601f168201915b505050505081526020016004820154815250508152602001906001019061014c565b50505050905090565b60006001600083815260200190815260200160002060009054906101000a900460ff169050919050565b60008054905090565b60016020528060005260406000206000915054906101000a900460ff1681565b600060016000808282546102f49190610a54565b9250508190555060026040518060a001604052803373ffffffffffffffffffffffffffffffffffffffff16815260200187815260200142815260200186868080601f016020809104026020016040519081016040528093929190818152602001838380828437600081840152601f19601f82011690508083019250505050505050815260200184815250908060018154018082558091505060019003906000526020600020906005020160009091909190915060008201518160000160006101000a81548173ffffffffffffffffffffffffffffffffffffffff021916908373ffffffffffffffffffffffffffffffffffffffff1602179055506020820151816001015560408201518160020155606082015181600301908051906020019061041e9291906104d9565b50608082015181600401555050600033864287878760405160200161044896959493929190610b52565b604051602081830303815290604052805190602001209050600180600083815260200190815260200160002060006101000a81548160ff021916908315150217905550807fcb3ab088ed4dd2d59821909c54156824c8fb16ad0f0f7d0ca15ad637af091fd43388428989896040516104c596959493929190610bfc565b60405180910390a280915050949350505050565b8280546104e5906109f4565b90600052602060002090601f016020900481019282610507576000855561054e565b82601f1061052057805160ff191683800117855561054e565b8280016001018555821561054e579182015b8281111561054d578251825591602001919060010190610532565b5b50905061055b919061055f565b5090565b5b80821115610578576000816000905550600101610560565b5090565b600081519050919050565b600082825260208201905092915050565b6000819050602082019050919050565b600073ffffffffffffffffffffffffffffffffffffffff82169050919050565b60006105d3826105a8565b9050919050565b6105e3816105c8565b82525050565b6000819050919050565b6105fc816105e9565b82525050565b600081519050919050565b600082825260208201905092915050565b60005b8381101561063c578082015181840152602081019050610621565b8381111561064b576000848401525b50505050565b6000601f19601f8301169050919050565b600061066d82610602565b610677818561060d565b935061068781856020860161061e565b61069081610651565b840191505092915050565b600060a0830160008301516106b360008601826105da565b5060208301516106c660208601826105f3565b5060408301516106d960408601826105f3565b50606083015184820360608601526106f18282610662565b915050608083015161070660808601826105f3565b508091505092915050565b600061071d838361069b565b905092915050565b6000602082019050919050565b600061073d8261057c565b6107478185610587565b93508360208202850161075985610598565b8060005b8581101561079557848403895281516107768582610711565b945061078183610725565b925060208a0199505060018101905061075d565b50829750879550505050505092915050565b600060208201905081810360008301526107c18184610732565b905092915050565b600080fd5b600080fd5b6000819050919050565b6107e6816107d3565b81146107f157600080fd5b50565b600081359050610803816107dd565b92915050565b60006020828403121561081f5761081e6107c9565b5b600061082d848285016107f4565b91505092915050565b60008115159050919050565b61084b81610836565b82525050565b60006020820190506108666000830184610842565b92915050565b610875816105e9565b82525050565b6000602082019050610890600083018461086c565b92915050565b61089f816105e9565b81146108aa57600080fd5b50565b6000813590506108bc81610896565b92915050565b600080fd5b600080fd5b600080fd5b60008083601f8401126108e7576108e66108c2565b5b8235905067ffffffffffffffff811115610904576109036108c7565b5b6020830191508360018202830111156109205761091f6108cc565b5b9250929050565b60008060008060608587031215610941576109406107c9565b5b600061094f878288016108ad565b945050602085013567ffffffffffffffff8111156109705761096f6107ce565b5b61097c878288016108d1565b9350935050604061098f878288016108ad565b91505092959194509250565b6109a4816107d3565b82525050565b60006020820190506109bf600083018461099b565b92915050565b7f4e487b7100000000000000000000000000000000000000000000000000000000600052602260045260246000fd5b60006002820490506001821680610a0c57607f821691505b602082108103610a1f57610a1e6109c5565b5b50919050565b7f4e487b7100000000000000000000000000000000000000000000000000000000600052601160045260246000fd5b6000610a5f826105e9565b9150610a6a836105e9565b9250827fffffffffffffffffffffffffffffffffffffffffffffffffffffffffffffffff03821115610a9f57610a9e610a25565b5b828201905092915050565b60008160601b9050919050565b6000610ac282610aaa565b9050919050565b6000610ad482610ab7565b9050919050565b610aec610ae7826105c8565b610ac9565b82525050565b6000819050919050565b610b0d610b08826105e9565b610af2565b82525050565b600081905092915050565b82818337600083830152505050565b6000610b398385610b13565b9350610b46838584610b1e565b82840190509392505050565b6000610b5e8289610adb565b601482019150610b6e8288610afc565b602082019150610b7e8287610afc565b602082019150610b8f828587610b2d565b9150610b9b8284610afc565b602082019150819050979650505050505050565b610bb8816105c8565b82525050565b600082825260208201905092915050565b6000610bdb8385610bbe565b9350610be8838584610b1e565b610bf183610651565b840190509392505050565b600060a082019050610c116000830189610baf565b610c1e602083018861086c565b610c2b604083018761086c565b8181036060830152610c3e818587610bcf565b9050610c4d608083018461086c565b97965050505050505056fea26469706673582212201fedd73fa02cc979ebd6e061bc66a22f5071ac820770d2e1c9a65cd2994291ea64736f6c634300080d0033",
  "immutableReferences": {},
  "source": "// SPDX-License-Identifier: UNLICENSED\r\npragma solidity ^0.8.13;\r\n\r\ncontract Issuer { \r\n    uint256 transactionCounter;\r\n    mapping(bytes32 => bool) public transactions;\r\n\r\n    event issueCredits (\r\n        bytes32 indexed txHash,\r\n        address from,\r\n        uint credit_amount,\r\n        uint256 timestamp,\r\n        string status,\r\n        uint256 end_date\r\n    );\r\n\r\n    struct issuerStruct {\r\n        address issuerAdd; \r\n        uint credit_amount;\r\n        uint256 timestamp; \r\n        string status; // Retired, Active \r\n        uint256 end_date;\r\n    }\r\n\r\n    issuerStruct[] issuerTransactions;\r\n\r\n    function addToBlockChain(uint credit_amount, string calldata status, uint256 end_date) public returns (bytes32) {\r\n        transactionCounter += 1;\r\n        issuerTransactions.push(issuerStruct(msg.sender, credit_amount, block.timestamp, status, end_date));\r\n        \r\n        bytes32 txHash = keccak256(abi.encodePacked(msg.sender, credit_amount, block.timestamp, status, end_date));\r\n        transactions[txHash] = true;\r\n        \r\n        emit issueCredits(txHash, msg.sender, credit_amount, block.timestamp, status, end_date);\r\n        return txHash;\r\n    }\r\n    \r\n    function getAllTransactions() public view returns (issuerStruct[] memory) {\r\n        return issuerTransactions;\r\n    }\r\n\r\n    function getTransactionCount() public view returns (uint256) {\r\n        return transactionCounter;\r\n    }\r\n\r\n    function transactionExists(bytes32 txHash) public view returns (bool) {\r\n        return transactions[txHash];\r\n    }\r\n}",
  "sourcePath": "C:\\Users\\munys\\Capstone_Project\\truffle\\contracts\\Issuer.sol",
  "compiler": {
    "name": "solc",
    "version": "0.8.13+commit.abaa5c0e.Emscripten.clang"
  },
  "schemaVersion": "3.4.16",
  "updatedAt": "2024-09-06T16:51:41.377Z",
  "networkType": "ethereum",
  "devdoc": {
    "kind": "dev",
    "methods": {},
    "version": 1
  },
  "userdoc": {
    "kind": "user",
    "methods": {},
    "version": 1
  }
}