{
  "contractName": "Issuer",
  "abi": [
    {
      "anonymous": false,
      "inputs": [
        {
          "indexed": false,
          "internalType": "address",
          "name": "from",
          "type": "address"
        },
        {
          "indexed": false,
          "internalType": "uint256",
          "name": "amount",
          "type": "uint256"
        },
        {
          "indexed": false,
          "internalType": "uint256",
          "name": "timestamp",
          "type": "uint256"
        },
        {
          "indexed": false,
          "internalType": "string",
          "name": "status",
          "type": "string"
        },
        {
          "indexed": false,
          "internalType": "uint256",
          "name": "end_date",
          "type": "uint256"
        }
      ],
      "name": "issueCredits",
      "type": "event"
    },
    {
      "inputs": [
        {
          "internalType": "uint256",
          "name": "amount",
          "type": "uint256"
        },
        {
          "internalType": "string",
          "name": "status",
          "type": "string"
        },
        {
          "internalType": "uint256",
          "name": "end_date",
          "type": "uint256"
        }
      ],
      "name": "addToBlockChain",
      "outputs": [],
      "stateMutability": "nonpayable",
      "type": "function"
    },
    {
      "inputs": [],
      "name": "getAllTransactions",
      "outputs": [
        {
          "components": [
            {
              "internalType": "address",
              "name": "sender",
              "type": "address"
            },
            {
              "internalType": "uint256",
              "name": "amount",
              "type": "uint256"
            },
            {
              "internalType": "uint256",
              "name": "timestamp",
              "type": "uint256"
            },
            {
              "internalType": "string",
              "name": "status",
              "type": "string"
            },
            {
              "internalType": "uint256",
              "name": "end_date",
              "type": "uint256"
            }
          ],
          "internalType": "struct Issuer.issuerStruct[]",
          "name": "",
          "type": "tuple[]"
        }
      ],
      "stateMutability": "view",
      "type": "function",
      "constant": true
    },
    {
      "inputs": [],
      "name": "getTransactionCount",
      "outputs": [
        {
          "internalType": "uint256",
          "name": "",
          "type": "uint256"
        }
      ],
      "stateMutability": "view",
      "type": "function",
      "constant": true
    }
  ],
  "bytecode": "0x608060405234801561001057600080fd5b50610998806100206000396000f3fe608060405234801561001057600080fd5b50600436106100415760003560e01c806327506f53146100465780632e7700f014610064578063de7cd45014610082575b600080fd5b61004e61009e565b60405161005b919061066a565b60405180910390f35b61006c610203565b604051610079919061069b565b60405180910390f35b61009c60048036038101906100979190610751565b61020c565b005b60606001805480602002602001604051908101604052809291908181526020016000905b828210156101fa57838290600052602060002090600502016040518060a00160405290816000820160009054906101000a900473ffffffffffffffffffffffffffffffffffffffff1673ffffffffffffffffffffffffffffffffffffffff1673ffffffffffffffffffffffffffffffffffffffff168152602001600182015481526020016002820154815260200160038201805461015f906107f4565b80601f016020809104026020016040519081016040528092919081815260200182805461018b906107f4565b80156101d85780601f106101ad576101008083540402835291602001916101d8565b820191906000526020600020905b8154815290600101906020018083116101bb57829003601f168201915b50505050508152602001600482015481525050815260200190600101906100c2565b50505050905090565b60008054905090565b600160008082825461021e9190610854565b9250508190555060016040518060a001604052803373ffffffffffffffffffffffffffffffffffffffff16815260200186815260200142815260200185858080601f016020809104026020016040519081016040528093929190818152602001838380828437600081840152601f19601f82011690508083019250505050505050815260200183815250908060018154018082558091505060019003906000526020600020906005020160009091909190915060008201518160000160006101000a81548173ffffffffffffffffffffffffffffffffffffffff021916908373ffffffffffffffffffffffffffffffffffffffff1602179055506020820151816001015560408201518160020155606082015181600301908051906020019061034892919061039c565b506080820151816004015550507fa9c7e2849788981b2066bbd5c15c1e87420b7b6996639537c5cd134c4344289d33854286868660405161038e96959493929190610906565b60405180910390a150505050565b8280546103a8906107f4565b90600052602060002090601f0160209004810192826103ca5760008555610411565b82601f106103e357805160ff1916838001178555610411565b82800160010185558215610411579182015b828111156104105782518255916020019190600101906103f5565b5b50905061041e9190610422565b5090565b5b8082111561043b576000816000905550600101610423565b5090565b600081519050919050565b600082825260208201905092915050565b6000819050602082019050919050565b600073ffffffffffffffffffffffffffffffffffffffff82169050919050565b60006104968261046b565b9050919050565b6104a68161048b565b82525050565b6000819050919050565b6104bf816104ac565b82525050565b600081519050919050565b600082825260208201905092915050565b60005b838110156104ff5780820151818401526020810190506104e4565b8381111561050e576000848401525b50505050565b6000601f19601f8301169050919050565b6000610530826104c5565b61053a81856104d0565b935061054a8185602086016104e1565b61055381610514565b840191505092915050565b600060a083016000830151610576600086018261049d565b50602083015161058960208601826104b6565b50604083015161059c60408601826104b6565b50606083015184820360608601526105b48282610525565b91505060808301516105c960808601826104b6565b508091505092915050565b60006105e0838361055e565b905092915050565b6000602082019050919050565b60006106008261043f565b61060a818561044a565b93508360208202850161061c8561045b565b8060005b85811015610658578484038952815161063985826105d4565b9450610644836105e8565b925060208a01995050600181019050610620565b50829750879550505050505092915050565b6000602082019050818103600083015261068481846105f5565b905092915050565b610695816104ac565b82525050565b60006020820190506106b0600083018461068c565b92915050565b600080fd5b600080fd5b6106c9816104ac565b81146106d457600080fd5b50565b6000813590506106e6816106c0565b92915050565b600080fd5b600080fd5b600080fd5b60008083601f840112610711576107106106ec565b5b8235905067ffffffffffffffff81111561072e5761072d6106f1565b5b60208301915083600182028301111561074a576107496106f6565b5b9250929050565b6000806000806060858703121561076b5761076a6106b6565b5b6000610779878288016106d7565b945050602085013567ffffffffffffffff81111561079a576107996106bb565b5b6107a6878288016106fb565b935093505060406107b9878288016106d7565b91505092959194509250565b7f4e487b7100000000000000000000000000000000000000000000000000000000600052602260045260246000fd5b6000600282049050600182168061080c57607f821691505b60208210810361081f5761081e6107c5565b5b50919050565b7f4e487b7100000000000000000000000000000000000000000000000000000000600052601160045260246000fd5b600061085f826104ac565b915061086a836104ac565b9250827fffffffffffffffffffffffffffffffffffffffffffffffffffffffffffffffff0382111561089f5761089e610825565b5b828201905092915050565b6108b38161048b565b82525050565b600082825260208201905092915050565b82818337600083830152505050565b60006108e583856108b9565b93506108f28385846108ca565b6108fb83610514565b840190509392505050565b600060a08201905061091b60008301896108aa565b610928602083018861068c565b610935604083018761068c565b81810360608301526109488185876108d9565b9050610957608083018461068c565b97965050505050505056fea2646970667358221220a3773ec9924685488c0f7be6eca3a291948ec0e240384083832eb4f025e7db3564736f6c634300080d0033",
  "immutableReferences": {},
  "source": "// SPDX-License-Identifier: UNLICENSED\r\npragma solidity ^0.8.13;\r\n\r\ncontract Issuer { \r\n    uint256 transactionCounter;\r\n\r\n    event issueCredits (address from, uint amount, uint256 timestamp, string status, uint256 end_date);\r\n\r\n    struct issuerStruct {\r\n        address sender; \r\n        uint amount;\r\n        uint256 timestamp; \r\n        string status;\r\n        uint256 end_date;\r\n    }\r\n\r\n    issuerStruct[] issuerTransactions;\r\n\r\n    function addToBlockChain(uint amount, string calldata status, uint256 end_date) public {\r\n        transactionCounter += 1;\r\n        issuerTransactions.push(issuerStruct(msg.sender, amount, block.timestamp, status, end_date));\r\n        \r\n        emit issueCredits(msg.sender, amount, block.timestamp, status, end_date);\r\n    }\r\n    \r\n    function getAllTransactions() public view returns (issuerStruct[] memory) {\r\n        return issuerTransactions;\r\n    }\r\n\r\n    function getTransactionCount() public view returns (uint256) {\r\n        return transactionCounter;\r\n    }\r\n}",
  "sourcePath": "C:\\Users\\munys\\OneDrive - University of Canberra (student)\\Desktop\\capstone_project\\truffle\\contracts\\Issuer.sol",
  "compiler": {
    "name": "solc",
    "version": "0.8.13+commit.abaa5c0e.Emscripten.clang"
  },
  "schemaVersion": "3.4.16",
  "updatedAt": "2024-09-02T10:26:22.303Z",
  "networkType": "ethereum",
  "devdoc": {
    "kind": "dev",
    "methods": {},
    "version": 1
  },
  "userdoc": {
    "kind": "user",
    "methods": {},
    "version": 1
  }
}