{
  "contractName": "Verifier",
  "abi": [
    {
      "inputs": [
        {
          "internalType": "address",
          "name": "_emitterAddress",
          "type": "address"
        },
        {
          "internalType": "address",
          "name": "_issuerAddress",
          "type": "address"
        }
      ],
      "stateMutability": "nonpayable",
      "type": "constructor"
    },
    {
      "anonymous": false,
      "inputs": [
        {
          "indexed": true,
          "internalType": "bytes32",
          "name": "originalTxHash",
          "type": "bytes32"
        },
        {
          "indexed": true,
          "internalType": "bytes32",
          "name": "updateTxHash",
          "type": "bytes32"
        },
        {
          "indexed": false,
          "internalType": "uint256",
          "name": "updateCount",
          "type": "uint256"
        }
      ],
      "name": "TransactionUpdateLinked",
      "type": "event"
    },
    {
      "anonymous": false,
      "inputs": [
        {
          "indexed": true,
          "internalType": "bytes32",
          "name": "originalTxHash",
          "type": "bytes32"
        },
        {
          "indexed": true,
          "internalType": "bytes32",
          "name": "updateTxHash",
          "type": "bytes32"
        },
        {
          "indexed": false,
          "internalType": "uint256",
          "name": "newStatus",
          "type": "uint256"
        },
        {
          "indexed": false,
          "internalType": "enum Verifier.TransactionType",
          "name": "transactionType",
          "type": "uint8"
        }
      ],
      "name": "TransactionVerified",
      "type": "event"
    },
    {
      "inputs": [
        {
          "internalType": "bytes32",
          "name": "",
          "type": "bytes32"
        },
        {
          "internalType": "uint256",
          "name": "",
          "type": "uint256"
        }
      ],
      "name": "transactionUpdateHistory",
      "outputs": [
        {
          "internalType": "bytes32",
          "name": "",
          "type": "bytes32"
        }
      ],
      "stateMutability": "view",
      "type": "function",
      "constant": true
    },
    {
      "inputs": [
        {
          "internalType": "bytes32",
          "name": "",
          "type": "bytes32"
        }
      ],
      "name": "verificationUpdates",
      "outputs": [
        {
          "internalType": "bytes32",
          "name": "originalTxHash",
          "type": "bytes32"
        },
        {
          "internalType": "uint256",
          "name": "newStatus",
          "type": "uint256"
        },
        {
          "internalType": "uint256",
          "name": "timestamp",
          "type": "uint256"
        },
        {
          "internalType": "enum Verifier.TransactionType",
          "name": "transactionType",
          "type": "uint8"
        }
      ],
      "stateMutability": "view",
      "type": "function",
      "constant": true
    },
    {
      "inputs": [
        {
          "internalType": "bytes32",
          "name": "originalTxHash",
          "type": "bytes32"
        },
        {
          "internalType": "uint256",
          "name": "newStatus",
          "type": "uint256"
        }
      ],
      "name": "verifyEmitterTransaction",
      "outputs": [
        {
          "internalType": "bytes32",
          "name": "",
          "type": "bytes32"
        }
      ],
      "stateMutability": "nonpayable",
      "type": "function"
    },
    {
      "inputs": [
        {
          "internalType": "bytes32",
          "name": "originalTxHash",
          "type": "bytes32"
        },
        {
          "internalType": "uint256",
          "name": "newStatus",
          "type": "uint256"
        }
      ],
      "name": "verifyIssuerTransaction",
      "outputs": [
        {
          "internalType": "bytes32",
          "name": "",
          "type": "bytes32"
        }
      ],
      "stateMutability": "nonpayable",
      "type": "function"
    },
    {
      "inputs": [
        {
          "internalType": "bytes32",
          "name": "updateTxHash",
          "type": "bytes32"
        }
      ],
      "name": "getVerificationUpdate",
      "outputs": [
        {
          "components": [
            {
              "internalType": "bytes32",
              "name": "originalTxHash",
              "type": "bytes32"
            },
            {
              "internalType": "uint256",
              "name": "newStatus",
              "type": "uint256"
            },
            {
              "internalType": "uint256",
              "name": "timestamp",
              "type": "uint256"
            },
            {
              "internalType": "enum Verifier.TransactionType",
              "name": "transactionType",
              "type": "uint8"
            }
          ],
          "internalType": "struct Verifier.VerificationUpdate",
          "name": "",
          "type": "tuple"
        }
      ],
      "stateMutability": "view",
      "type": "function",
      "constant": true
    },
    {
      "inputs": [
        {
          "internalType": "bytes32",
          "name": "originalTxHash",
          "type": "bytes32"
        }
      ],
      "name": "getTransactionUpdateHistory",
      "outputs": [
        {
          "internalType": "bytes32[]",
          "name": "",
          "type": "bytes32[]"
        }
      ],
      "stateMutability": "view",
      "type": "function",
      "constant": true
    }
  ],
  "bytecode": "0x608060405234801561001057600080fd5b5060405162000ef438038062000ef48339818101604052810190610034919061011f565b816000806101000a81548173ffffffffffffffffffffffffffffffffffffffff021916908373ffffffffffffffffffffffffffffffffffffffff16021790555080600160006101000a81548173ffffffffffffffffffffffffffffffffffffffff021916908373ffffffffffffffffffffffffffffffffffffffff160217905550505061015f565b600080fd5b600073ffffffffffffffffffffffffffffffffffffffff82169050919050565b60006100ec826100c1565b9050919050565b6100fc816100e1565b811461010757600080fd5b50565b600081519050610119816100f3565b92915050565b60008060408385031215610136576101356100bc565b5b60006101448582860161010a565b92505060206101558582860161010a565b9150509250929050565b610d85806200016f6000396000f3fe608060405234801561001057600080fd5b50600436106100625760003560e01c806309c889e1146100675780635aaba22314610097578063646abf6e146100c757806395f3f317146100f7578063b343fc7b14610127578063bd0cc65614610157575b600080fd5b610081600480360381019061007c919061076f565b61018a565b60405161008e91906107be565b60405180910390f35b6100b160048036038101906100ac919061076f565b6101bb565b6040516100be91906107be565b60405180910390f35b6100e160048036038101906100dc91906107d9565b6102ac565b6040516100ee91906108c4565b60405180910390f35b610111600480360381019061010c919061076f565b610317565b60405161011e91906107be565b60405180910390f35b610141600480360381019061013c91906107d9565b610407565b60405161014e91906109c1565b60405180910390f35b610171600480360381019061016c91906107d9565b6104e6565b60405161018194939291906109fa565b60405180910390f35b600360205281600052604060002081815481106101a657600080fd5b90600052602060002001600091509150505481565b6000600160009054906101000a900473ffffffffffffffffffffffffffffffffffffffff1673ffffffffffffffffffffffffffffffffffffffff16632dc4efcb846040518263ffffffff1660e01b815260040161021891906107be565b602060405180830381865afa158015610235573d6000803e3d6000fd5b505050506040513d601f19601f820116820180604052508101906102599190610a77565b610298576040517f08c379a000000000000000000000000000000000000000000000000000000000815260040161028f90610b27565b60405180910390fd5b6102a483836001610523565b905092915050565b60606003600083815260200190815260200160002080548060200260200160405190810160405280929190818152602001828054801561030b57602002820191906000526020600020905b8154815260200190600101908083116102f7575b50505050509050919050565b60008060009054906101000a900473ffffffffffffffffffffffffffffffffffffffff1673ffffffffffffffffffffffffffffffffffffffff16632dc4efcb846040518263ffffffff1660e01b815260040161037391906107be565b602060405180830381865afa158015610390573d6000803e3d6000fd5b505050506040513d601f19601f820116820180604052508101906103b49190610a77565b6103f3576040517f08c379a00000000000000000000000000000000000000000000000000000000081526004016103ea90610bb9565b60405180910390fd5b6103ff83836000610523565b905092915050565b61040f6106c1565b6000600260008481526020019081526020016000206002015403610468576040517f08c379a000000000000000000000000000000000000000000000000000000000815260040161045f90610c25565b60405180910390fd5b600260008381526020019081526020016000206040518060800160405290816000820154815260200160018201548152602001600282015481526020016003820160009054906101000a900460ff1660018111156104c9576104c86108f5565b5b60018111156104db576104da6108f5565b5b815250509050919050565b60026020528060005260406000206000915090508060000154908060010154908060020154908060030160009054906101000a900460ff16905084565b6000808484428560405160200161053d9493929190610cbd565b6040516020818303038152906040528051906020012090506040518060800160405280868152602001858152602001428152602001846001811115610585576105846108f5565b5b8152506002600083815260200190815260200160002060008201518160000155602082015181600101556040820151816002015560608201518160030160006101000a81548160ff021916908360018111156105e4576105e36108f5565b5b02179055509050506003600086815260200190815260200160002081908060018154018082558091505060019003906000526020600020016000909190919091505560006003600087815260200190815260200160002080549050905081867f3280aa94174e877232595aa1b6b8d0d3237cf1a169bd9fb26cfa4303b0da3f3e8787604051610674929190610d0b565b60405180910390a381867f2ea5609698e9616de9c6afaf7321ff03a0633a123530bcd534d3beb611802b6b836040516106ad9190610d34565b60405180910390a381925050509392505050565b6040518060800160405280600080191681526020016000815260200160008152602001600060018111156106f8576106f76108f5565b5b81525090565b600080fd5b6000819050919050565b61071681610703565b811461072157600080fd5b50565b6000813590506107338161070d565b92915050565b6000819050919050565b61074c81610739565b811461075757600080fd5b50565b60008135905061076981610743565b92915050565b60008060408385031215610786576107856106fe565b5b600061079485828601610724565b92505060206107a58582860161075a565b9150509250929050565b6107b881610703565b82525050565b60006020820190506107d360008301846107af565b92915050565b6000602082840312156107ef576107ee6106fe565b5b60006107fd84828501610724565b91505092915050565b600081519050919050565b600082825260208201905092915050565b6000819050602082019050919050565b61083b81610703565b82525050565b600061084d8383610832565b60208301905092915050565b6000602082019050919050565b600061087182610806565b61087b8185610811565b935061088683610822565b8060005b838110156108b757815161089e8882610841565b97506108a983610859565b92505060018101905061088a565b5085935050505092915050565b600060208201905081810360008301526108de8184610866565b905092915050565b6108ef81610739565b82525050565b7f4e487b7100000000000000000000000000000000000000000000000000000000600052602160045260246000fd5b60028110610935576109346108f5565b5b50565b600081905061094682610924565b919050565b600061095682610938565b9050919050565b6109668161094b565b82525050565b6080820160008201516109826000850182610832565b50602082015161099560208501826108e6565b5060408201516109a860408501826108e6565b5060608201516109bb606085018261095d565b50505050565b60006080820190506109d6600083018461096c565b92915050565b6109e581610739565b82525050565b6109f48161094b565b82525050565b6000608082019050610a0f60008301876107af565b610a1c60208301866109dc565b610a2960408301856109dc565b610a3660608301846109eb565b95945050505050565b60008115159050919050565b610a5481610a3f565b8114610a5f57600080fd5b50565b600081519050610a7181610a4b565b92915050565b600060208284031215610a8d57610a8c6106fe565b5b6000610a9b84828501610a62565b91505092915050565b600082825260208201905092915050565b7f4f726967696e616c20697373756572207472616e73616374696f6e20646f657360008201527f206e6f7420657869737400000000000000000000000000000000000000000000602082015250565b6000610b11602a83610aa4565b9150610b1c82610ab5565b604082019050919050565b60006020820190508181036000830152610b4081610b04565b9050919050565b7f4f726967696e616c20656d6974746572207472616e73616374696f6e20646f6560008201527f73206e6f74206578697374000000000000000000000000000000000000000000602082015250565b6000610ba3602b83610aa4565b9150610bae82610b47565b604082019050919050565b60006020820190508181036000830152610bd281610b96565b9050919050565b7f557064617465206e6f7420666f756e6400000000000000000000000000000000600082015250565b6000610c0f601083610aa4565b9150610c1a82610bd9565b602082019050919050565b60006020820190508181036000830152610c3e81610c02565b9050919050565b6000819050919050565b610c60610c5b82610703565b610c45565b82525050565b6000819050919050565b610c81610c7c82610739565b610c66565b82525050565b60008160f81b9050919050565b6000610c9f82610c87565b9050919050565b610cb7610cb28261094b565b610c94565b82525050565b6000610cc98287610c4f565b602082019150610cd98286610c70565b602082019150610ce98285610c70565b602082019150610cf98284610ca6565b60018201915081905095945050505050565b6000604082019050610d2060008301856109dc565b610d2d60208301846109eb565b9392505050565b6000602082019050610d4960008301846109dc565b9291505056fea264697066735822122038a75a417243c83f802dfdf87906bfef1d03e9aceab2189032ea7ec4b37921a964736f6c634300080d0033",
  "immutableReferences": {},
  "source": "// SPDX-License-Identifier: UNLICENSED\r\npragma solidity ^0.8.13;\r\nimport \"./Issuer.sol\";\r\nimport \"./Emitter.sol\";\r\n\r\ncontract Verifier {\r\n    Emitter emitterContract;\r\n    Issuer issuerContract;\r\n    \r\n    enum TransactionType { Emitter, Issuer }\r\n    \r\n    struct VerificationUpdate {\r\n        bytes32 originalTxHash;\r\n        uint256 newStatus;\r\n        uint256 timestamp;\r\n        TransactionType transactionType;\r\n    }\r\n    \r\n    mapping(bytes32 => VerificationUpdate) public verificationUpdates;\r\n    mapping(bytes32 => bytes32[]) public transactionUpdateHistory;\r\n    \r\n    event TransactionVerified(\r\n        bytes32 indexed originalTxHash,\r\n        bytes32 indexed updateTxHash,\r\n        uint256 newStatus,\r\n        TransactionType transactionType\r\n    );\r\n\r\n    event TransactionUpdateLinked(\r\n        bytes32 indexed originalTxHash,\r\n        bytes32 indexed updateTxHash,\r\n        uint256 updateCount\r\n    );\r\n\r\n    constructor(address _emitterAddress, address _issuerAddress) {\r\n        emitterContract = Emitter(_emitterAddress);\r\n        issuerContract = Issuer(_issuerAddress);\r\n    }\r\n\r\n    function verifyEmitterTransaction(bytes32 originalTxHash, uint256 newStatus) external returns (bytes32) {\r\n        require(emitterContract.transactionExists(originalTxHash), \"Original emitter transaction does not exist\");\r\n        return _createVerificationUpdate(originalTxHash, newStatus, TransactionType.Emitter);\r\n    }\r\n\r\n    function verifyIssuerTransaction(bytes32 originalTxHash, uint256 newStatus) external returns (bytes32) {\r\n        require(issuerContract.transactionExists(originalTxHash), \"Original issuer transaction does not exist\");\r\n        return _createVerificationUpdate(originalTxHash, newStatus, TransactionType.Issuer);\r\n    }\r\n\r\n    function _createVerificationUpdate(bytes32 originalTxHash, uint256 newStatus, TransactionType transactionType) internal returns (bytes32) {\r\n        bytes32 updateTxHash = keccak256(abi.encodePacked(originalTxHash, newStatus, block.timestamp, transactionType));\r\n        \r\n        verificationUpdates[updateTxHash] = VerificationUpdate({\r\n            originalTxHash: originalTxHash,\r\n            newStatus: newStatus,\r\n            timestamp: block.timestamp,\r\n            transactionType: transactionType\r\n        });\r\n        \r\n        transactionUpdateHistory[originalTxHash].push(updateTxHash);\r\n        uint256 updateCount = transactionUpdateHistory[originalTxHash].length;\r\n        \r\n        emit TransactionVerified(originalTxHash, updateTxHash, newStatus, transactionType);\r\n        emit TransactionUpdateLinked(originalTxHash, updateTxHash, updateCount);\r\n        \r\n        return updateTxHash;\r\n    }\r\n\r\n    function getVerificationUpdate(bytes32 updateTxHash) public view returns (VerificationUpdate memory) {\r\n        require(verificationUpdates[updateTxHash].timestamp != 0, \"Update not found\");\r\n        return verificationUpdates[updateTxHash];\r\n    }\r\n\r\n    function getTransactionUpdateHistory(bytes32 originalTxHash) public view returns (bytes32[] memory) {\r\n        return transactionUpdateHistory[originalTxHash];\r\n    }\r\n}",
  "sourcePath": "C:\\Users\\munys\\Capstone_Project\\truffle\\contracts\\Verifier.sol",
  "compiler": {
    "name": "solc",
    "version": "0.8.13+commit.abaa5c0e.Emscripten.clang"
  },
  "schemaVersion": "3.4.16",
  "updatedAt": "2024-09-06T16:51:41.366Z",
  "networkType": "ethereum",
  "devdoc": {
    "kind": "dev",
    "methods": {},
    "version": 1
  },
  "userdoc": {
    "kind": "user",
    "methods": {},
    "version": 1
  }
}