{
    "contractName": "Verifier",
    "abi": [
        {
            "inputs": [
                {
                    "internalType": "address",
                    "name": "_emitterAddress",
                    "type": "address"
                },
                {
                    "internalType": "address",
                    "name": "_issuerAddress",
                    "type": "address"
                }
            ],
            "stateMutability": "nonpayable",
            "type": "constructor"
        },
        {
            "anonymous": false,
            "inputs": [
                {
                    "indexed": true,
                    "internalType": "bytes32",
                    "name": "originalTxHash",
                    "type": "bytes32"
                },
                {
                    "indexed": true,
                    "internalType": "bytes32",
                    "name": "updateTxHash",
                    "type": "bytes32"
                },
                {
                    "indexed": false,
                    "internalType": "uint256",
                    "name": "updateCount",
                    "type": "uint256"
                }
            ],
            "name": "TransactionUpdateLinked",
            "type": "event"
        },
        {
            "anonymous": false,
            "inputs": [
                {
                    "indexed": true,
                    "internalType": "bytes32",
                    "name": "originalTxHash",
                    "type": "bytes32"
                },
                {
                    "indexed": true,
                    "internalType": "bytes32",
                    "name": "updateTxHash",
                    "type": "bytes32"
                },
                {
                    "indexed": false,
                    "internalType": "uint256",
                    "name": "newStatus",
                    "type": "uint256"
                },
                {
                    "indexed": false,
                    "internalType": "bool",
                    "name": "isEmitterTransaction",
                    "type": "bool"
                }
            ],
            "name": "TransactionVerified",
            "type": "event"
        },
        {
            "inputs": [
                {
                    "internalType": "bytes32",
                    "name": "",
                    "type": "bytes32"
                },
                {
                    "internalType": "uint256",
                    "name": "",
                    "type": "uint256"
                }
            ],
            "name": "transactionUpdateHistory",
            "outputs": [
                {
                    "internalType": "bytes32",
                    "name": "",
                    "type": "bytes32"
                }
            ],
            "stateMutability": "view",
            "type": "function",
            "constant": true
        },
        {
            "inputs": [
                {
                    "internalType": "bytes32",
                    "name": "",
                    "type": "bytes32"
                }
            ],
            "name": "verificationUpdates",
            "outputs": [
                {
                    "internalType": "bytes32",
                    "name": "originalTxHash",
                    "type": "bytes32"
                },
                {
                    "internalType": "uint256",
                    "name": "newStatus",
                    "type": "uint256"
                },
                {
                    "internalType": "uint256",
                    "name": "timestamp",
                    "type": "uint256"
                },
                {
                    "internalType": "bool",
                    "name": "isEmitterTransaction",
                    "type": "bool"
                }
            ],
            "stateMutability": "view",
            "type": "function",
            "constant": true
        },
        {
            "inputs": [
                {
                    "internalType": "bytes32",
                    "name": "originalTxHash",
                    "type": "bytes32"
                },
                {
                    "internalType": "uint256",
                    "name": "newStatus",
                    "type": "uint256"
                }
            ],
            "name": "verifyEmitterTransaction",
            "outputs": [
                {
                    "internalType": "bytes32",
                    "name": "",
                    "type": "bytes32"
                }
            ],
            "stateMutability": "nonpayable",
            "type": "function"
        },
        {
            "inputs": [
                {
                    "internalType": "bytes32",
                    "name": "originalTxHash",
                    "type": "bytes32"
                },
                {
                    "internalType": "uint256",
                    "name": "newStatus",
                    "type": "uint256"
                }
            ],
            "name": "verifyIssuerTransaction",
            "outputs": [
                {
                    "internalType": "bytes32",
                    "name": "",
                    "type": "bytes32"
                }
            ],
            "stateMutability": "nonpayable",
            "type": "function"
        },
        {
            "inputs": [
                {
                    "internalType": "bytes32",
                    "name": "updateTxHash",
                    "type": "bytes32"
                }
            ],
            "name": "getVerificationUpdate",
            "outputs": [
                {
                    "components": [
                        {
                            "internalType": "bytes32",
                            "name": "originalTxHash",
                            "type": "bytes32"
                        },
                        {
                            "internalType": "uint256",
                            "name": "newStatus",
                            "type": "uint256"
                        },
                        {
                            "internalType": "uint256",
                            "name": "timestamp",
                            "type": "uint256"
                        },
                        {
                            "internalType": "bool",
                            "name": "isEmitterTransaction",
                            "type": "bool"
                        }
                    ],
                    "internalType": "struct Verifier.VerificationUpdate",
                    "name": "",
                    "type": "tuple"
                }
            ],
            "stateMutability": "view",
            "type": "function",
            "constant": true
        },
        {
            "inputs": [
                {
                    "internalType": "bytes32",
                    "name": "originalTxHash",
                    "type": "bytes32"
                }
            ],
            "name": "getTransactionUpdateHistory",
            "outputs": [
                {
                    "internalType": "bytes32[]",
                    "name": "",
                    "type": "bytes32[]"
                }
            ],
            "stateMutability": "view",
            "type": "function",
            "constant": true
        }
    ],
    "bytecode": "0x608060405234801561001057600080fd5b50604051610e4b380380610e4b8339818101604052810190610032919061011d565b816000806101000a81548173ffffffffffffffffffffffffffffffffffffffff021916908373ffffffffffffffffffffffffffffffffffffffff16021790555080600160006101000a81548173ffffffffffffffffffffffffffffffffffffffff021916908373ffffffffffffffffffffffffffffffffffffffff160217905550505061015d565b600080fd5b600073ffffffffffffffffffffffffffffffffffffffff82169050919050565b60006100ea826100bf565b9050919050565b6100fa816100df565b811461010557600080fd5b50565b600081519050610117816100f1565b92915050565b60008060408385031215610134576101336100ba565b5b600061014285828601610108565b925050602061015385828601610108565b9150509250929050565b610cdf8061016c6000396000f3fe608060405234801561001057600080fd5b50600436106100625760003560e01c806309c889e1146100675780635aaba22314610097578063646abf6e146100c757806395f3f317146100f7578063b343fc7b14610127578063bd0cc65614610157575b600080fd5b610081600480360381019061007c919061071f565b61018a565b60405161008e919061076e565b60405180910390f35b6100b160048036038101906100ac919061071f565b6101bb565b6040516100be919061076e565b60405180910390f35b6100e160048036038101906100dc9190610789565b6102ac565b6040516100ee9190610874565b60405180910390f35b610111600480360381019061010c919061071f565b610317565b60405161011e919061076e565b60405180910390f35b610141600480360381019061013c9190610789565b610407565b60405161014e9190610915565b60405180910390f35b610171600480360381019061016c9190610789565b6104c6565b604051610181949392919061094e565b60405180910390f35b600360205281600052604060002081815481106101a657600080fd5b90600052602060002001600091509150505481565b6000600160009054906101000a900473ffffffffffffffffffffffffffffffffffffffff1673ffffffffffffffffffffffffffffffffffffffff16632dc4efcb846040518263ffffffff1660e01b8152600401610218919061076e565b602060405180830381865afa158015610235573d6000803e3d6000fd5b505050506040513d601f19601f8201168201806040525081019061025991906109bf565b610298576040517f08c379a000000000000000000000000000000000000000000000000000000000815260040161028f90610a6f565b60405180910390fd5b6102a483836000610503565b905092915050565b60606003600083815260200190815260200160002080548060200260200160405190810160405280929190818152602001828054801561030b57602002820191906000526020600020905b8154815260200190600101908083116102f7575b50505050509050919050565b60008060009054906101000a900473ffffffffffffffffffffffffffffffffffffffff1673ffffffffffffffffffffffffffffffffffffffff16632dc4efcb846040518263ffffffff1660e01b8152600401610373919061076e565b602060405180830381865afa158015610390573d6000803e3d6000fd5b505050506040513d601f19601f820116820180604052508101906103b491906109bf565b6103f3576040517f08c379a00000000000000000000000000000000000000000000000000000000081526004016103ea90610b01565b60405180910390fd5b6103ff83836001610503565b905092915050565b61040f610681565b6000600260008481526020019081526020016000206002015403610468576040517f08c379a000000000000000000000000000000000000000000000000000000000815260040161045f90610b6d565b60405180910390fd5b600260008381526020019081526020016000206040518060800160405290816000820154815260200160018201548152602001600282015481526020016003820160009054906101000a900460ff1615151515815250509050919050565b60026020528060005260406000206000915090508060000154908060010154908060020154908060030160009054906101000a900460ff16905084565b6000808484428560405160200161051d9493929190610c17565b60405160208183030381529060405280519060200120905060405180608001604052808681526020018581526020014281526020018415158152506002600083815260200190815260200160002060008201518160000155602082015181600101556040820151816002015560608201518160030160006101000a81548160ff0219169083151502179055509050506003600086815260200190815260200160002081908060018154018082558091505060019003906000526020600020016000909190919091505560006003600087815260200190815260200160002080549050905081867ff7f872c3aa2974cad7e01721cf93c85244fc2fdd39532239d308f702f9741ebc8787604051610634929190610c65565b60405180910390a381867f2ea5609698e9616de9c6afaf7321ff03a0633a123530bcd534d3beb611802b6b8360405161066d9190610c8e565b60405180910390a381925050509392505050565b60405180608001604052806000801916815260200160008152602001600081526020016000151581525090565b600080fd5b6000819050919050565b6106c6816106b3565b81146106d157600080fd5b50565b6000813590506106e3816106bd565b92915050565b6000819050919050565b6106fc816106e9565b811461070757600080fd5b50565b600081359050610719816106f3565b92915050565b60008060408385031215610736576107356106ae565b5b6000610744858286016106d4565b92505060206107558582860161070a565b9150509250929050565b610768816106b3565b82525050565b6000602082019050610783600083018461075f565b92915050565b60006020828403121561079f5761079e6106ae565b5b60006107ad848285016106d4565b91505092915050565b600081519050919050565b600082825260208201905092915050565b6000819050602082019050919050565b6107eb816106b3565b82525050565b60006107fd83836107e2565b60208301905092915050565b6000602082019050919050565b6000610821826107b6565b61082b81856107c1565b9350610836836107d2565b8060005b8381101561086757815161084e88826107f1565b975061085983610809565b92505060018101905061083a565b5085935050505092915050565b6000602082019050818103600083015261088e8184610816565b905092915050565b61089f816106e9565b82525050565b60008115159050919050565b6108ba816108a5565b82525050565b6080820160008201516108d660008501826107e2565b5060208201516108e96020850182610896565b5060408201516108fc6040850182610896565b50606082015161090f60608501826108b1565b50505050565b600060808201905061092a60008301846108c0565b92915050565b610939816106e9565b82525050565b610948816108a5565b82525050565b6000608082019050610963600083018761075f565b6109706020830186610930565b61097d6040830185610930565b61098a606083018461093f565b95945050505050565b61099c816108a5565b81146109a757600080fd5b50565b6000815190506109b981610993565b92915050565b6000602082840312156109d5576109d46106ae565b5b60006109e3848285016109aa565b91505092915050565b600082825260208201905092915050565b7f4f726967696e616c20697373756572207472616e73616374696f6e20646f657360008201527f206e6f7420657869737400000000000000000000000000000000000000000000602082015250565b6000610a59602a836109ec565b9150610a64826109fd565b604082019050919050565b60006020820190508181036000830152610a8881610a4c565b9050919050565b7f4f726967696e616c20656d6974746572207472616e73616374696f6e20646f6560008201527f73206e6f74206578697374000000000000000000000000000000000000000000602082015250565b6000610aeb602b836109ec565b9150610af682610a8f565b604082019050919050565b60006020820190508181036000830152610b1a81610ade565b9050919050565b7f557064617465206e6f7420666f756e6400000000000000000000000000000000600082015250565b6000610b576010836109ec565b9150610b6282610b21565b602082019050919050565b60006020820190508181036000830152610b8681610b4a565b9050919050565b6000819050919050565b610ba8610ba3826106b3565b610b8d565b82525050565b6000819050919050565b610bc9610bc4826106e9565b610bae565b82525050565b60008160f81b9050919050565b6000610be782610bcf565b9050919050565b6000610bf982610bdc565b9050919050565b610c11610c0c826108a5565b610bee565b82525050565b6000610c238287610b97565b602082019150610c338286610bb8565b602082019150610c438285610bb8565b602082019150610c538284610c00565b60018201915081905095945050505050565b6000604082019050610c7a6000830185610930565b610c87602083018461093f565b9392505050565b6000602082019050610ca36000830184610930565b9291505056fea2646970667358221220cdea11828c4b49d1985d691c4c58a89305b726e31d2872ccf8979532eefc256764736f6c634300080d0033",
    "immutableReferences": {},
    "source": "// SPDX-License-Identifier: UNLICENSED\r\npragma solidity ^0.8.13;\r\nimport \"./Issuer.sol\";\r\nimport \"./Emitter.sol\";\r\n\r\ncontract Verifier {\r\n    Emitter emitterContract;\r\n    Issuer issuerContract;\r\n    \r\n    struct VerificationUpdate {\r\n        bytes32 originalTxHash;\r\n        uint256 newStatus;\r\n        uint256 timestamp;\r\n        bool isEmitterTransaction;\r\n    }\r\n    \r\n    mapping(bytes32 => VerificationUpdate) public verificationUpdates;\r\n    mapping(bytes32 => bytes32[]) public transactionUpdateHistory;\r\n    \r\n    event TransactionVerified(\r\n        bytes32 indexed originalTxHash,\r\n        bytes32 indexed updateTxHash,\r\n        uint256 newStatus,\r\n        bool isEmitterTransaction\r\n    );\r\n\r\n    event TransactionUpdateLinked(\r\n        bytes32 indexed originalTxHash,\r\n        bytes32 indexed updateTxHash,\r\n        uint256 updateCount\r\n    );\r\n\r\n    constructor(address _emitterAddress, address _issuerAddress) {\r\n        emitterContract = Emitter(_emitterAddress);\r\n        issuerContract = Issuer(_issuerAddress);\r\n    }\r\n\r\n    function verifyEmitterTransaction(bytes32 originalTxHash, uint256 newStatus) external returns (bytes32) {\r\n        require(emitterContract.transactionExists(originalTxHash), \"Original emitter transaction does not exist\");\r\n        return _createVerificationUpdate(originalTxHash, newStatus, true);\r\n    }\r\n\r\n    function verifyIssuerTransaction(bytes32 originalTxHash, uint256 newStatus) external returns (bytes32) {\r\n        require(issuerContract.transactionExists(originalTxHash), \"Original issuer transaction does not exist\");\r\n        return _createVerificationUpdate(originalTxHash, newStatus, false);\r\n    }\r\n\r\n    function _createVerificationUpdate(bytes32 originalTxHash, uint256 newStatus, bool isEmitterTransaction) internal returns (bytes32) {\r\n        bytes32 updateTxHash = keccak256(abi.encodePacked(originalTxHash, newStatus, block.timestamp, isEmitterTransaction));\r\n        \r\n        verificationUpdates[updateTxHash] = VerificationUpdate({\r\n            originalTxHash: originalTxHash,\r\n            newStatus: newStatus,\r\n            timestamp: block.timestamp,\r\n            isEmitterTransaction: isEmitterTransaction\r\n        });\r\n        \r\n        transactionUpdateHistory[originalTxHash].push(updateTxHash);\r\n        uint256 updateCount = transactionUpdateHistory[originalTxHash].length;\r\n        \r\n        emit TransactionVerified(originalTxHash, updateTxHash, newStatus, isEmitterTransaction);\r\n        emit TransactionUpdateLinked(originalTxHash, updateTxHash, updateCount);\r\n        \r\n        return updateTxHash;\r\n    }\r\n\r\n    function getVerificationUpdate(bytes32 updateTxHash) public view returns (VerificationUpdate memory) {\r\n        require(verificationUpdates[updateTxHash].timestamp != 0, \"Update not found\");\r\n        return verificationUpdates[updateTxHash];\r\n    }\r\n\r\n    function getTransactionUpdateHistory(bytes32 originalTxHash) public view returns (bytes32[] memory) {\r\n        return transactionUpdateHistory[originalTxHash];\r\n    }\r\n}",
    "sourcePath": "C:\\Users\\munys\\OneDrive - University of Canberra (student)\\Desktop\\capstone_project\\truffle\\contracts\\Verifier.sol",
    "compiler": {
        "name": "solc",
        "version": "0.8.13+commit.abaa5c0e.Emscripten.clang"
    },
    "schemaVersion": "3.4.16",
    "updatedAt": "2024-09-03T03:54:16.453Z",
    "networkType": "ethereum",
    "devdoc": {
        "kind": "dev",
        "methods": {},
        "version": 1
    },
    "userdoc": {
        "kind": "user",
        "methods": {},
        "version": 1
    }
}